{
  "contractName": "MedHealth",
  "abi": [
    {
      "inputs": [],
      "payable": false,
      "stateMutability": "nonpayable",
      "type": "constructor"
    },
    {
      "constant": false,
      "inputs": [
        {
          "name": "accountAddress",
          "type": "address"
        },
        {
          "name": "role",
          "type": "string"
        },
        {
          "name": "uuid",
          "type": "string"
        }
      ],
      "name": "registerAccount",
      "outputs": [],
      "payable": false,
      "stateMutability": "nonpayable",
      "type": "function"
    },
    {
      "constant": true,
      "inputs": [
        {
          "name": "accountAddress",
          "type": "address"
        }
      ],
      "name": "getAccount",
      "outputs": [
        {
          "name": "",
          "type": "address"
        },
        {
          "name": "",
          "type": "string"
        },
        {
          "name": "",
          "type": "string"
        }
      ],
      "payable": false,
      "stateMutability": "view",
      "type": "function"
    },
    {
      "constant": false,
      "inputs": [
        {
          "name": "id",
          "type": "uint256"
        },
        {
          "name": "inquiryType",
          "type": "string"
        }
      ],
      "name": "patientRegistrationInquiry",
      "outputs": [],
      "payable": false,
      "stateMutability": "nonpayable",
      "type": "function"
    },
    {
      "constant": false,
      "inputs": [
        {
          "name": "id",
          "type": "uint256"
        },
        {
          "name": "physicianAddress",
          "type": "address"
        }
      ],
      "name": "hospitalDisInquiry",
      "outputs": [],
      "payable": false,
      "stateMutability": "nonpayable",
      "type": "function"
    },
    {
      "constant": false,
      "inputs": [
        {
          "name": "id",
          "type": "uint256"
        }
      ],
      "name": "physicianRecInquiry",
      "outputs": [],
      "payable": false,
      "stateMutability": "nonpayable",
      "type": "function"
    },
    {
      "constant": false,
      "inputs": [
        {
          "name": "id",
          "type": "uint256"
        },
        {
          "name": "medicalHash",
          "type": "string"
        },
        {
          "name": "videoHash",
          "type": "string"
        }
      ],
      "name": "physicianDiagnosisInquiry",
      "outputs": [],
      "payable": false,
      "stateMutability": "nonpayable",
      "type": "function"
    },
    {
      "constant": false,
      "inputs": [
        {
          "name": "id",
          "type": "uint256"
        }
      ],
      "name": "hospitalReviewInquiry",
      "outputs": [],
      "payable": false,
      "stateMutability": "nonpayable",
      "type": "function"
    },
    {
      "constant": true,
      "inputs": [
        {
          "name": "id",
          "type": "uint256"
        }
      ],
      "name": "getInquiry",
      "outputs": [
        {
          "name": "",
          "type": "uint256"
        },
        {
          "name": "",
          "type": "address"
        },
        {
          "name": "",
          "type": "address"
        },
        {
          "name": "",
          "type": "address"
        },
        {
          "name": "",
          "type": "string"
        },
        {
          "name": "",
          "type": "string"
        },
        {
          "name": "",
          "type": "string"
        },
        {
          "name": "",
          "type": "uint8"
        },
        {
          "name": "",
          "type": "uint8"
        },
        {
          "name": "",
          "type": "uint8"
        },
        {
          "name": "",
          "type": "uint8"
        }
      ],
      "payable": false,
      "stateMutability": "view",
      "type": "function"
    },
    {
      "constant": false,
      "inputs": [
        {
          "name": "id",
          "type": "uint256"
        },
        {
          "name": "inquiryId",
          "type": "uint256"
        }
      ],
      "name": "patientRegDrugDelivery",
      "outputs": [],
      "payable": false,
      "stateMutability": "nonpayable",
      "type": "function"
    },
    {
      "constant": false,
      "inputs": [
        {
          "name": "id",
          "type": "uint256"
        }
      ],
      "name": "physicianAcceptDrugDelivery",
      "outputs": [],
      "payable": false,
      "stateMutability": "nonpayable",
      "type": "function"
    },
    {
      "constant": false,
      "inputs": [
        {
          "name": "id",
          "type": "uint256"
        },
        {
          "name": "certiHash",
          "type": "string"
        }
      ],
      "name": "physicianDeliveryDrug",
      "outputs": [],
      "payable": false,
      "stateMutability": "nonpayable",
      "type": "function"
    },
    {
      "constant": false,
      "inputs": [
        {
          "name": "id",
          "type": "uint256"
        }
      ],
      "name": "hospitalReviewDrugDelivery",
      "outputs": [],
      "payable": false,
      "stateMutability": "nonpayable",
      "type": "function"
    },
    {
      "constant": true,
      "inputs": [
        {
          "name": "id",
          "type": "uint256"
        }
      ],
      "name": "getDrugDelivery",
      "outputs": [
        {
          "name": "",
          "type": "uint256"
        },
        {
          "name": "",
          "type": "uint256"
        },
        {
          "name": "",
          "type": "address"
        },
        {
          "name": "",
          "type": "address"
        },
        {
          "name": "",
          "type": "address"
        },
        {
          "name": "",
          "type": "string"
        },
        {
          "name": "",
          "type": "uint8"
        },
        {
          "name": "",
          "type": "uint8"
        },
        {
          "name": "",
          "type": "uint8"
        }
      ],
      "payable": false,
      "stateMutability": "view",
      "type": "function"
    }
  ],
  "bytecode": "0x608060405234801561001057600080fd5b50336000806101000a81548173ffffffffffffffffffffffffffffffffffffffff021916908373ffffffffffffffffffffffffffffffffffffffff160217905550613385806100606000396000f3006080604052600436106100c5576000357c0100000000000000000000000000000000000000000000000000000000900463ffffffff16806319a4648d146100ca57806345356894146100f7578063600ef7aa146101c6578063619fb5bd146101f3578063861bea33146103675780639dc9f5c4146103945780639e604988146103c1578063d25b610514610434578063de5cf85b14610686578063dfc0e52d146106bd578063ef7d7b6a1461070a578063fa7303a7146107c3578063fbcbc0f114610836575b600080fd5b3480156100d657600080fd5b506100f560048036038101908080359060200190929190505050610991565b005b34801561010357600080fd5b506101c4600480360381019080803573ffffffffffffffffffffffffffffffffffffffff169060200190929190803590602001908201803590602001908080601f0160208091040260200160405190810160405280939291908181526020018383808284378201915050505050509192919290803590602001908201803590602001908080601f0160208091040260200160405190810160405280939291908181526020018383808284378201915050505050509192919290505050610cb3565b005b3480156101d257600080fd5b506101f160048036038101908080359060200190929190505050610e9d565b005b3480156101ff57600080fd5b5061021e6004803603810190808035906020019092919050505061104e565b604051808a81526020018981526020018873ffffffffffffffffffffffffffffffffffffffff1673ffffffffffffffffffffffffffffffffffffffff1681526020018773ffffffffffffffffffffffffffffffffffffffff1673ffffffffffffffffffffffffffffffffffffffff1681526020018673ffffffffffffffffffffffffffffffffffffffff1673ffffffffffffffffffffffffffffffffffffffff168152602001806020018560ff1660ff1681526020018460ff1660ff1681526020018360ff1660ff168152602001828103825286818151815260200191508051906020019080838360005b83811015610324578082015181840152602081019050610309565b50505050905090810190601f1680156103515780820380516001836020036101000a031916815260200191505b509a505050505050505050505060405180910390f35b34801561037357600080fd5b5061039260048036038101908080359060200190929190505050611271565b005b3480156103a057600080fd5b506103bf60048036038101908080359060200190929190505050611593565b005b3480156103cd57600080fd5b5061043260048036038101908080359060200190929190803590602001908201803590602001908080601f0160208091040260200160405190810160405280939291908181526020018383808284378201915050505050509192919290505050611744565b005b34801561044057600080fd5b5061045f60048036038101908080359060200190929190505050611db6565b604051808c81526020018b73ffffffffffffffffffffffffffffffffffffffff1673ffffffffffffffffffffffffffffffffffffffff1681526020018a73ffffffffffffffffffffffffffffffffffffffff1673ffffffffffffffffffffffffffffffffffffffff1681526020018973ffffffffffffffffffffffffffffffffffffffff1673ffffffffffffffffffffffffffffffffffffffff1681526020018060200180602001806020018860ff1660ff1681526020018760ff1660ff1681526020018660ff1660ff1681526020018560ff1660ff16815260200184810384528b818151815260200191508051906020019080838360005b83811015610573578082015181840152602081019050610558565b50505050905090810190601f1680156105a05780820380516001836020036101000a031916815260200191505b5084810383528a818151815260200191508051906020019080838360005b838110156105d95780820151818401526020810190506105be565b50505050905090810190601f1680156106065780820380516001836020036101000a031916815260200191505b50848103825289818151815260200191508051906020019080838360005b8381101561063f578082015181840152602081019050610624565b50505050905090810190601f16801561066c5780820380516001836020036101000a031916815260200191505b509e50505050505050505050505050505060405180910390f35b34801561069257600080fd5b506106bb600480360381019080803590602001909291908035906020019092919050505061212e565b005b3480156106c957600080fd5b5061070860048036038101908080359060200190929190803573ffffffffffffffffffffffffffffffffffffffff1690602001909291905050506126bf565b005b34801561071657600080fd5b506107c160048036038101908080359060200190929190803590602001908201803590602001908080601f0160208091040260200160405190810160405280939291908181526020018383808284378201915050505050509192919290803590602001908201803590602001908080601f01602080910402602001604051908101604052809392919081815260200183838082843782019150505050505091929192905050506128f7565b005b3480156107cf57600080fd5b5061083460048036038101908080359060200190929190803590602001908201803590602001908080601f0160208091040260200160405190810160405280939291908181526020018383808284378201915050505050509192919290505050612c4d565b005b34801561084257600080fd5b50610877600480360381019080803573ffffffffffffffffffffffffffffffffffffffff169060200190929190505050612f89565b604051808473ffffffffffffffffffffffffffffffffffffffff1673ffffffffffffffffffffffffffffffffffffffff1681526020018060200180602001838103835285818151815260200191508051906020019080838360005b838110156108ed5780820151818401526020810190506108d2565b50505050905090810190601f16801561091a5780820380516001836020036101000a031916815260200191505b50838103825284818151815260200191508051906020019080838360005b83811015610953578082015181840152602081019050610938565b50505050905090810190601f1680156109805780820380516001836020036101000a031916815260200191505b509550505050505060405180910390f35b600080600360008481526020019081526020016000206000015414151515610a21576040517f08c379a000000000000000000000000000000000000000000000000000000000815260040180806020018281038252601b8152602001807fe88dafe59381e4bba3e4b9b0e4bfa1e681afe4b88de5ad98e59ca8000000000081525060200191505060405180910390fd5b60405160200180807fe58cbbe5b888000000000000000000000000000000000000000000000000000081525060060190506040516020818303038152906040526040518082805190602001908083835b602083101515610a965780518252602082019150602081019050602083039250610a71565b6001836020036101000a038019825116818451168082178552505050505050905001915050604051809103902060001916600160003373ffffffffffffffffffffffffffffffffffffffff1673ffffffffffffffffffffffffffffffffffffffff1681526020019081526020016000206001016040516020018082805460018160011615610100020316600290048015610b675780601f10610b45576101008083540402835291820191610b67565b820191906000526020600020905b815481529060010190602001808311610b53575b50509150506040516020818303038152906040526040518082805190602001908083835b602083101515610bb05780518252602082019150602081019050602083039250610b8b565b6001836020036101000a038019825116818451168082178552505050505050905001915050604051809103902060001916141515610c7c576040517f08c379a000000000000000000000000000000000000000000000000000000000815260040180806020018281038252602f8152602001807fe6ada4e6938de4bd9c28e799bbe8aeb0e88dafe59381e4bba3e4b9b029e58faa81526020017fe883bde682a3e88085e4bdbfe794a8000000000000000000000000000000000081525060400191505060405180910390fd5b60036000838152602001908152602001600020905060018160060160006101000a81548160ff021916908360ff1602179055505050565b6000600160008573ffffffffffffffffffffffffffffffffffffffff1673ffffffffffffffffffffffffffffffffffffffff16815260200190815260200160002060000160009054906101000a900473ffffffffffffffffffffffffffffffffffffffff1673ffffffffffffffffffffffffffffffffffffffff16141515610da3576040517f08c379a000000000000000000000000000000000000000000000000000000000815260040180806020018281038252600f8152602001807fe8b4a6e688b7e5b7b2e6b3a8e5868c000000000000000000000000000000000081525060200191505060405180910390fd5b6060604051908101604052808473ffffffffffffffffffffffffffffffffffffffff16815260200183815260200182815250600160008573ffffffffffffffffffffffffffffffffffffffff1673ffffffffffffffffffffffffffffffffffffffff16815260200190815260200160002060008201518160000160006101000a81548173ffffffffffffffffffffffffffffffffffffffff021916908373ffffffffffffffffffffffffffffffffffffffff1602179055506020820151816001019080519060200190610e77929190613234565b506040820151816002019080519060200190610e94929190613234565b50905050505050565b600080600260008481526020019081526020016000206000015414151515610f2d576040517f08c379a00000000000000000000000000000000000000000000000000000000081526004018080602001828103825260158152602001807fe997aee8af8ae4bfa1e681afe4b88de5ad98e59ca8000000000000000000000081525060200191505060405180910390fd5b6000809054906101000a900473ffffffffffffffffffffffffffffffffffffffff1673ffffffffffffffffffffffffffffffffffffffff163373ffffffffffffffffffffffffffffffffffffffff16141515611017576040517f08c379a000000000000000000000000000000000000000000000000000000000815260040180806020018281038252602a8152602001807fe58faae69c89e58cbbe999a2e7aea1e79086e4babae59198e58fafe4bba5e5ae81526020017fa1e6a0b8e997aee8af8a0000000000000000000000000000000000000000000081525060400191505060405180910390fd5b60026000838152602001908152602001600020905060018160070160036101000a81548160ff021916908360ff1602179055505050565b600080600080600060606000806000806000600360008d815260200190815260200160002060000154141515156110ed576040517f08c379a000000000000000000000000000000000000000000000000000000000815260040180806020018281038252601b8152602001807fe88dafe59381e4bba3e4b9b0e4bfa1e681afe4b88de5ad98e59ca8000000000081525060200191505060405180910390fd5b600360008c81526020019081526020016000209050806000015481600101548260020160009054906101000a900473ffffffffffffffffffffffffffffffffffffffff168360030160009054906101000a900473ffffffffffffffffffffffffffffffffffffffff168460040160009054906101000a900473ffffffffffffffffffffffffffffffffffffffff16856005018660060160009054906101000a900460ff168760060160019054906101000a900460ff168860060160029054906101000a900460ff16838054600181600116156101000203166002900480601f01602080910402602001604051908101604052809291908181526020018280546001816001161561010002031660029004801561124a5780601f1061121f5761010080835404028352916020019161124a565b820191906000526020600020905b81548152906001019060200180831161122d57829003601f168201915b50505050509350995099509950995099509950995099509950509193959799909294969850565b600080600260008481526020019081526020016000206000015414151515611301576040517f08c379a00000000000000000000000000000000000000000000000000000000081526004018080602001828103825260158152602001807fe997aee8af8ae4bfa1e681afe4b88de5ad98e59ca8000000000000000000000081525060200191505060405180910390fd5b60405160200180807fe58cbbe5b888000000000000000000000000000000000000000000000000000081525060060190506040516020818303038152906040526040518082805190602001908083835b6020831015156113765780518252602082019150602081019050602083039250611351565b6001836020036101000a038019825116818451168082178552505050505050905001915050604051809103902060001916600160003373ffffffffffffffffffffffffffffffffffffffff1673ffffffffffffffffffffffffffffffffffffffff16815260200190815260200160002060010160405160200180828054600181600116156101000203166002900480156114475780601f10611425576101008083540402835291820191611447565b820191906000526020600020905b815481529060010190602001808311611433575b50509150506040516020818303038152906040526040518082805190602001908083835b602083101515611490578051825260208201915060208101905060208303925061146b565b6001836020036101000a03801982511681845116808217855250505050505090500191505060405180910390206000191614151561155c576040517f08c379a00000000000000000000000000000000000000000000000000000000081526004018080602001828103825260238152602001807fe6ada4e6938de4bd9c28e68ea5e8af8a29e58faae883bde58cbbe5b888e4bdbf81526020017fe794a8000000000000000000000000000000000000000000000000000000000081525060400191505060405180910390fd5b60026000838152602001908152602001600020905060018160070160016101000a81548160ff021916908360ff1602179055505050565b600080600360008481526020019081526020016000206000015414151515611623576040517f08c379a000000000000000000000000000000000000000000000000000000000815260040180806020018281038252601b8152602001807fe88dafe59381e4bba3e4b9b0e4bfa1e681afe4b88de5ad98e59ca8000000000081525060200191505060405180910390fd5b6000809054906101000a900473ffffffffffffffffffffffffffffffffffffffff1673ffffffffffffffffffffffffffffffffffffffff163373ffffffffffffffffffffffffffffffffffffffff1614151561170d576040517f08c379a00000000000000000000000000000000000000000000000000000000081526004018080602001828103825260368152602001807fe58faae69c89e58cbbe999a2e7aea1e79086e4babae59198e58fafe4bba5e5ae81526020017fa1e6a0b8e88dafe59381e4bba3e4b9b0e68385e586b50000000000000000000081525060400191505060405180910390fd5b60036000838152602001908152602001600020905060018160060160026101000a81548160ff021916908360ff1602179055505050565b6000600160003373ffffffffffffffffffffffffffffffffffffffff1673ffffffffffffffffffffffffffffffffffffffff16815260200190815260200160002060000160009054906101000a900473ffffffffffffffffffffffffffffffffffffffff1673ffffffffffffffffffffffffffffffffffffffff1614151515611835576040517f08c379a000000000000000000000000000000000000000000000000000000000815260040180806020018281038252600f8152602001807fe8b4a6e688b7e4b88de5ad98e59ca8000000000000000000000000000000000081525060200191505060405180910390fd5b60405160200180807fe682a3e88085000000000000000000000000000000000000000000000000000081525060060190506040516020818303038152906040526040518082805190602001908083835b6020831015156118aa5780518252602082019150602081019050602083039250611885565b6001836020036101000a038019825116818451168082178552505050505050905001915050604051809103902060001916600160003373ffffffffffffffffffffffffffffffffffffffff1673ffffffffffffffffffffffffffffffffffffffff168152602001908152602001600020600101604051602001808280546001816001161561010002031660029004801561197b5780601f1061195957610100808354040283529182019161197b565b820191906000526020600020905b815481529060010190602001808311611967575b50509150506040516020818303038152906040526040518082805190602001908083835b6020831015156119c4578051825260208201915060208101905060208303925061199f565b6001836020036101000a038019825116818451168082178552505050505050905001915050604051809103902060001916141515611a90576040517f08c379a00000000000000000000000000000000000000000000000000000000081526004018080602001828103825260298152602001807fe6ada4e6938de4bd9c28e799bbe8aeb0e997aee8af8a29e58faae883bde682a381526020017fe88085e4bdbfe794a8000000000000000000000000000000000000000000000081525060400191505060405180910390fd5b60006002600084815260200190815260200160002060000154141515611b1e576040517f08c379a00000000000000000000000000000000000000000000000000000000081526004018080602001828103825260158152602001807fe997aee8af8ae4bfa1e681afe5b7b2e5ad98e59ca8000000000000000000000081525060200191505060405180910390fd5b610160604051908101604052808381526020013373ffffffffffffffffffffffffffffffffffffffff168152602001600073ffffffffffffffffffffffffffffffffffffffff168152602001600073ffffffffffffffffffffffffffffffffffffffff1681526020018281526020016020604051908101604052806000815250815260200160206040519081016040528060008152508152602001600060ff168152602001600060ff168152602001600060ff168152602001600060ff16815250600260008481526020019081526020016000206000820151816000015560208201518160010160006101000a81548173ffffffffffffffffffffffffffffffffffffffff021916908373ffffffffffffffffffffffffffffffffffffffff16021790555060408201518160020160006101000a81548173ffffffffffffffffffffffffffffffffffffffff021916908373ffffffffffffffffffffffffffffffffffffffff16021790555060608201518160030160006101000a81548173ffffffffffffffffffffffffffffffffffffffff021916908373ffffffffffffffffffffffffffffffffffffffff1602179055506080820151816004019080519060200190611ced929190613234565b5060a0820151816005019080519060200190611d0a929190613234565b5060c0820151816006019080519060200190611d27929190613234565b5060e08201518160070160006101000a81548160ff021916908360ff1602179055506101008201518160070160016101000a81548160ff021916908360ff1602179055506101208201518160070160026101000a81548160ff021916908360ff1602179055506101408201518160070160036101000a81548160ff021916908360ff1602179055509050505050565b6000806000806060806060600080600080600080600260008f81526020019081526020016000206000015414151515611e57576040517f08c379a00000000000000000000000000000000000000000000000000000000081526004018080602001828103825260158152602001807fe997aee8af8ae4bfa1e681afe4b88de5ad98e59ca8000000000000000000000081525060200191505060405180910390fd5b600260008e8152602001908152602001600020905080600001548160010160009054906101000a900473ffffffffffffffffffffffffffffffffffffffff168260020160009054906101000a900473ffffffffffffffffffffffffffffffffffffffff168360030160009054906101000a900473ffffffffffffffffffffffffffffffffffffffff168460040185600501866006018760070160009054906101000a900460ff168860070160019054906101000a900460ff168960070160029054906101000a900460ff168a60070160039054906101000a900460ff16868054600181600116156101000203166002900480601f016020809104026020016040519081016040528092919081815260200182805460018160011615610100020316600290048015611fc95780601f10611f9e57610100808354040283529160200191611fc9565b820191906000526020600020905b815481529060010190602001808311611fac57829003601f168201915b50505050509650858054600181600116156101000203166002900480601f0160208091040260200160405190810160405280929190818152602001828054600181600116156101000203166002900480156120655780601f1061203a57610100808354040283529160200191612065565b820191906000526020600020905b81548152906001019060200180831161204857829003601f168201915b50505050509550848054600181600116156101000203166002900480601f0160208091040260200160405190810160405280929190818152602001828054600181600116156101000203166002900480156121015780601f106120d657610100808354040283529160200191612101565b820191906000526020600020905b8154815290600101906020018083116120e457829003601f168201915b505050505094509b509b509b509b509b509b509b509b509b509b509b505091939597999b90929496989a50565b60008060036000858152602001908152602001600020600001541415156121e3576040517f08c379a000000000000000000000000000000000000000000000000000000000815260040180806020018281038252602a8152602001807fe88dafe59381e4bba3e4b9b0e4bfa1e681afe5b7b2e5ad98e59ca8efbc8ce4b881526020017f8de883bde799bbe8aeb00000000000000000000000000000000000000000000081525060400191505060405180910390fd5b60405160200180807fe682a3e88085000000000000000000000000000000000000000000000000000081525060060190506040516020818303038152906040526040518082805190602001908083835b6020831015156122585780518252602082019150602081019050602083039250612233565b6001836020036101000a038019825116818451168082178552505050505050905001915050604051809103902060001916600160003373ffffffffffffffffffffffffffffffffffffffff1673ffffffffffffffffffffffffffffffffffffffff16815260200190815260200160002060010160405160200180828054600181600116156101000203166002900480156123295780601f10612307576101008083540402835291820191612329565b820191906000526020600020905b815481529060010190602001808311612315575b50509150506040516020818303038152906040526040518082805190602001908083835b602083101515612372578051825260208201915060208101905060208303925061234d565b6001836020036101000a03801982511681845116808217855250505050505090500191505060405180910390206000191614151561243e576040517f08c379a000000000000000000000000000000000000000000000000000000000815260040180806020018281038252602f8152602001807fe6ada4e6938de4bd9c28e799bbe8aeb0e88dafe59381e4bba3e4b9b029e58faa81526020017fe883bde682a3e88085e4bdbfe794a8000000000000000000000000000000000081525060400191505060405180910390fd5b600260008481526020019081526020016000209050610120604051908101604052808481526020018381526020013373ffffffffffffffffffffffffffffffffffffffff1681526020018260020160009054906101000a900473ffffffffffffffffffffffffffffffffffffffff1673ffffffffffffffffffffffffffffffffffffffff1681526020018260030160009054906101000a900473ffffffffffffffffffffffffffffffffffffffff1673ffffffffffffffffffffffffffffffffffffffff16815260200160206040519081016040528060008152508152602001600060ff168152602001600060ff168152602001600060ff1681525060036000858152602001908152602001600020600082015181600001556020820151816001015560408201518160020160006101000a81548173ffffffffffffffffffffffffffffffffffffffff021916908373ffffffffffffffffffffffffffffffffffffffff16021790555060608201518160030160006101000a81548173ffffffffffffffffffffffffffffffffffffffff021916908373ffffffffffffffffffffffffffffffffffffffff16021790555060808201518160040160006101000a81548173ffffffffffffffffffffffffffffffffffffffff021916908373ffffffffffffffffffffffffffffffffffffffff16021790555060a0820151816005019080519060200190612652929190613234565b5060c08201518160060160006101000a81548160ff021916908360ff16021790555060e08201518160060160016101000a81548160ff021916908360ff1602179055506101008201518160060160026101000a81548160ff021916908360ff160217905550905050505050565b60008060026000858152602001908152602001600020600001541415151561274f576040517f08c379a00000000000000000000000000000000000000000000000000000000081526004018080602001828103825260158152602001807fe997aee8af8ae4bfa1e681afe4b88de5ad98e59ca8000000000000000000000081525060200191505060405180910390fd5b6000809054906101000a900473ffffffffffffffffffffffffffffffffffffffff1673ffffffffffffffffffffffffffffffffffffffff163373ffffffffffffffffffffffffffffffffffffffff16141515612839576040517f08c379a000000000000000000000000000000000000000000000000000000000815260040180806020018281038252602a8152602001807fe58faae69c89e58cbbe999a2e7aea1e79086e4babae59198e58fafe4bba5e58881526020017f86e9858de58cbbe5b8880000000000000000000000000000000000000000000081525060400191505060405180910390fd5b600260008481526020019081526020016000209050818160020160006101000a81548173ffffffffffffffffffffffffffffffffffffffff021916908373ffffffffffffffffffffffffffffffffffffffff160217905550338160030160006101000a81548173ffffffffffffffffffffffffffffffffffffffff021916908373ffffffffffffffffffffffffffffffffffffffff16021790555060018160070160006101000a81548160ff021916908360ff160217905550505050565b600080600260008681526020019081526020016000206000015414151515612987576040517f08c379a00000000000000000000000000000000000000000000000000000000081526004018080602001828103825260158152602001807fe997aee8af8ae4bfa1e681afe4b88de5ad98e59ca8000000000000000000000081525060200191505060405180910390fd5b60405160200180807fe58cbbe5b888000000000000000000000000000000000000000000000000000081525060060190506040516020818303038152906040526040518082805190602001908083835b6020831015156129fc57805182526020820191506020810190506020830392506129d7565b6001836020036101000a038019825116818451168082178552505050505050905001915050604051809103902060001916600160003373ffffffffffffffffffffffffffffffffffffffff1673ffffffffffffffffffffffffffffffffffffffff1681526020019081526020016000206001016040516020018082805460018160011615610100020316600290048015612acd5780601f10612aab576101008083540402835291820191612acd565b820191906000526020600020905b815481529060010190602001808311612ab9575b50509150506040516020818303038152906040526040518082805190602001908083835b602083101515612b165780518252602082019150602081019050602083039250612af1565b6001836020036101000a038019825116818451168082178552505050505050905001915050604051809103902060001916141515612be2576040517f08c379a00000000000000000000000000000000000000000000000000000000081526004018080602001828103825260238152602001807fe6ada4e6938de4bd9c28e68ea5e8af8a29e58faae883bde58cbbe5b888e4bdbf81526020017fe794a8000000000000000000000000000000000000000000000000000000000081525060400191505060405180910390fd5b60026000858152602001908152602001600020905082816005019080519060200190612c0f9291906132b4565b5081816006019080519060200190612c289291906132b4565b5060018160070160026101000a81548160ff021916908360ff16021790555050505050565b600080600360008581526020019081526020016000206000015414151515612cdd576040517f08c379a000000000000000000000000000000000000000000000000000000000815260040180806020018281038252601b8152602001807fe88dafe59381e4bba3e4b9b0e4bfa1e681afe4b88de5ad98e59ca8000000000081525060200191505060405180910390fd5b60405160200180807fe58cbbe5b888000000000000000000000000000000000000000000000000000081525060060190506040516020818303038152906040526040518082805190602001908083835b602083101515612d525780518252602082019150602081019050602083039250612d2d565b6001836020036101000a038019825116818451168082178552505050505050905001915050604051809103902060001916600160003373ffffffffffffffffffffffffffffffffffffffff1673ffffffffffffffffffffffffffffffffffffffff1681526020019081526020016000206001016040516020018082805460018160011615610100020316600290048015612e235780601f10612e01576101008083540402835291820191612e23565b820191906000526020600020905b815481529060010190602001808311612e0f575b50509150506040516020818303038152906040526040518082805190602001908083835b602083101515612e6c5780518252602082019150602081019050602083039250612e47565b6001836020036101000a038019825116818451168082178552505050505050905001915050604051809103902060001916141515612f38576040517f08c379a000000000000000000000000000000000000000000000000000000000815260040180806020018281038252602f8152602001807fe6ada4e6938de4bd9c28e799bbe8aeb0e88dafe59381e4bba3e4b9b029e58faa81526020017fe883bde682a3e88085e4bdbfe794a8000000000000000000000000000000000081525060400191505060405180910390fd5b60036000848152602001908152602001600020905081816005019080519060200190612f659291906132b4565b5060018160060160016101000a81548160ff021916908360ff160217905550505050565b6000606080600080600160008773ffffffffffffffffffffffffffffffffffffffff1673ffffffffffffffffffffffffffffffffffffffff16815260200190815260200160002060000160009054906101000a900473ffffffffffffffffffffffffffffffffffffffff1673ffffffffffffffffffffffffffffffffffffffff1614151515613080576040517f08c379a000000000000000000000000000000000000000000000000000000000815260040180806020018281038252600f8152602001807fe8b4a6e688b7e4b88de5ad98e59ca8000000000000000000000000000000000081525060200191505060405180910390fd5b600160008673ffffffffffffffffffffffffffffffffffffffff1673ffffffffffffffffffffffffffffffffffffffff16815260200190815260200160002090508060000160009054906101000a900473ffffffffffffffffffffffffffffffffffffffff168160010182600201818054600181600116156101000203166002900480601f0160208091040260200160405190810160405280929190818152602001828054600181600116156101000203166002900480156131835780601f1061315857610100808354040283529160200191613183565b820191906000526020600020905b81548152906001019060200180831161316657829003601f168201915b50505050509150808054600181600116156101000203166002900480601f01602080910402602001604051908101604052809291908181526020018280546001816001161561010002031660029004801561321f5780601f106131f45761010080835404028352916020019161321f565b820191906000526020600020905b81548152906001019060200180831161320257829003601f168201915b50505050509050935093509350509193909250565b828054600181600116156101000203166002900490600052602060002090601f016020900481019282601f1061327557805160ff19168380011785556132a3565b828001600101855582156132a3579182015b828111156132a2578251825591602001919060010190613287565b5b5090506132b09190613334565b5090565b828054600181600116156101000203166002900490600052602060002090601f016020900481019282601f106132f557805160ff1916838001178555613323565b82800160010185558215613323579182015b82811115613322578251825591602001919060010190613307565b5b5090506133309190613334565b5090565b61335691905b8082111561335257600081600090555060010161333a565b5090565b905600a165627a7a72305820ad7743362f5f445ce3ab970a03c045a4d78c054154cef94b1fd70cd8fb21422b0029",
  "source": "pragma solidity ^0.4.25;\n\ncontract MedHealth {\n    //\n    struct Account {\n        address accountAddress;\n        string role; //\n        string uuid; //\n    }\n\n    //\n    struct Inquiry {\n        uint id;\n        address patientAddress; //\n        address physicianAddress; //\n        address supervisorAddress; //\n        string inquiryType; //: /\n        string medicalHash; //ipfscid\n        string videoHash; //ipfscid\n        uint8 isDis; // \n        uint8 isReception; // \n        uint8 isDiagnosis; //\n        uint8 isReview; //\n    }\n\n    //\n    struct DrugDelivery {\n        uint id;\n        uint bindInquiryId; //\n        address patientAddress; //\n        address physicianAddress; //\n        address supervisorAddress; //\n        string certiHash; //ipfscid\n        uint8 isAccept; //\n        uint8 isdelivery; //\n        uint8 isReview; //\n    }\n    address owner;\n\n    mapping(address => Account) accountMapping;\n\n    mapping(uint => Inquiry) inquiryMapping;\n\n    mapping(uint => DrugDelivery) drugDeliveryMapping;\n\n    function registerAccount(address accountAddress, string role, string uuid) public {\n        require(accountMapping[accountAddress].accountAddress == 0x0, \"\");\n        accountMapping[accountAddress] = Account(accountAddress, role, uuid);\n    }\n\n    function getAccount(address accountAddress) public view returns(address, string, string) {\n        require(accountMapping[accountAddress].accountAddress != 0x0, \"\");\n        Account account = accountMapping[accountAddress];\n        return (account.accountAddress, account.role, account.uuid);\n    }\n\n\n    constructor() {\n        owner = msg.sender;\n    }\n\n    //\n    //\n    function patientRegistrationInquiry(uint id, string inquiryType) public {\n        require(accountMapping[msg.sender].accountAddress != 0x0, \"\");\n        require(keccak256(abi.encodePacked(accountMapping[msg.sender].role)) == keccak256(abi.encodePacked(\"\")), \"()\");\n        require(inquiryMapping[id].id == 0, \"\");\n        inquiryMapping[id] = Inquiry(id, msg.sender, 0x0, 0x0, inquiryType, \"\",\"\", 0,0,0,0);\n    }\n\n    //\n    function hospitalDisInquiry(uint id, address physicianAddress) public {\n        require(inquiryMapping[id].id != 0, \"\");\n        require(msg.sender == owner, \"\");\n        Inquiry inquiry = inquiryMapping[id];\n        inquiry.physicianAddress = physicianAddress;\n        inquiry.supervisorAddress = msg.sender;\n        inquiry.isDis = 1;\n    }\n\n    //\n    function physicianRecInquiry(uint id) public {\n        require(inquiryMapping[id].id != 0, \"\");\n        require(keccak256(abi.encodePacked(accountMapping[msg.sender].role)) == keccak256(abi.encodePacked(\"\")), \"()\");\n        Inquiry inquiry = inquiryMapping[id];\n        inquiry.isReception = 1;\n    }\n\n    //\n    function physicianDiagnosisInquiry(uint id, string medicalHash, string videoHash) public {\n        require(inquiryMapping[id].id != 0, \"\");\n        require(keccak256(abi.encodePacked(accountMapping[msg.sender].role)) == keccak256(abi.encodePacked(\"\")), \"()\");\n        Inquiry inquiry = inquiryMapping[id];\n        inquiry.medicalHash = medicalHash;\n        inquiry.videoHash = videoHash;\n        inquiry.isDiagnosis = 1;\n    }\n\n    function hospitalReviewInquiry(uint id) public {\n        require(inquiryMapping[id].id != 0, \"\");\n        require(msg.sender == owner, \"\");\n        Inquiry inquiry = inquiryMapping[id];\n        inquiry.isReview = 1;\n    }\n\n    //\n    function getInquiry(uint id)public view returns(uint, address, address, address, string, string, string, uint8, uint8, uint8,uint8){\n        require(inquiryMapping[id].id != 0, \"\");\n        Inquiry inquiry = inquiryMapping[id];\n        return (inquiry.id, inquiry.patientAddress, inquiry.physicianAddress, inquiry.supervisorAddress, inquiry.inquiryType, inquiry.medicalHash, inquiry. videoHash, inquiry.isDis, inquiry.isReception, inquiry.isDiagnosis, inquiry.isReview);\n    }\n\n    //\n    //\n    function patientRegDrugDelivery(uint id, uint inquiryId)public {\n        require(drugDeliveryMapping[id].id == 0, \"\");\n        require(keccak256(abi.encodePacked(accountMapping[msg.sender].role)) == keccak256(abi.encodePacked(\"\")), \"()\");\n        Inquiry inquiry = inquiryMapping[id];\n        drugDeliveryMapping[id] = DrugDelivery(id, inquiryId, msg.sender, inquiry.physicianAddress, inquiry.supervisorAddress, \"\", 0,0,0);\n    }\n\n    //\n    function physicianAcceptDrugDelivery(uint id) public {\n        require(drugDeliveryMapping[id].id != 0, \"\");\n        require(keccak256(abi.encodePacked(accountMapping[msg.sender].role)) == keccak256(abi.encodePacked(\"\")), \"()\");\n        DrugDelivery drugDelivery = drugDeliveryMapping[id];\n        drugDelivery.isAccept = 1;\n    }\n\n    //\n    function physicianDeliveryDrug(uint id, string certiHash) public {\n        require(drugDeliveryMapping[id].id != 0, \"\");\n        require(keccak256(abi.encodePacked(accountMapping[msg.sender].role)) == keccak256(abi.encodePacked(\"\")), \"()\");\n        DrugDelivery drugDelivery = drugDeliveryMapping[id];\n        drugDelivery.certiHash = certiHash;\n        drugDelivery.isdelivery = 1;\n    }\n\n    //\n    function hospitalReviewDrugDelivery(uint id) public {\n        require(drugDeliveryMapping[id].id != 0, \"\");\n        require(msg.sender == owner, \"\");\n        DrugDelivery drugDelivery = drugDeliveryMapping[id];\n        drugDelivery.isReview = 1;\n    }\n\n    function getDrugDelivery(uint id) public view returns(uint, uint, address, address, address, string, uint8, uint8, uint8) {\n        require(drugDeliveryMapping[id].id != 0, \"\");\n        DrugDelivery drugDelivery = drugDeliveryMapping[id];\n        return (drugDelivery.id, drugDelivery.bindInquiryId, drugDelivery.patientAddress, drugDelivery.physicianAddress, drugDelivery.supervisorAddress,drugDelivery.certiHash, drugDelivery.isAccept, drugDelivery.isdelivery, drugDelivery.isReview);\n    }\n}\n",
  "sourcePath": "/Users/ljn/Documents/blockchaincomplete/Internet+/truffle/contracts/MedHealth.sol",
  "compiler": {
    "name": "solc",
    "version": "0.4.25+commit.59dbf8f1.Emscripten.clang"
  },
  "schemaVersion": "3.4.16",
  "updatedAt": "2024-10-08T01:41:00.526Z",
  "devdoc": {
    "methods": {}
  },
  "userdoc": {
    "methods": {}
  }
}